{
  "contractName": "PogCoin",
  "abi": [
    {
      "inputs": [
        {
          "internalType": "uint256",
          "name": "total",
          "type": "uint256"
        }
      ],
      "stateMutability": "nonpayable",
      "type": "constructor"
    },
    {
      "anonymous": false,
      "inputs": [
        {
          "indexed": true,
          "internalType": "address",
          "name": "tokenOwner",
          "type": "address"
        },
        {
          "indexed": true,
          "internalType": "address",
          "name": "spender",
          "type": "address"
        },
        {
          "indexed": false,
          "internalType": "uint256",
          "name": "tokens",
          "type": "uint256"
        }
      ],
      "name": "Approval",
      "type": "event"
    },
    {
      "anonymous": false,
      "inputs": [
        {
          "indexed": false,
          "internalType": "uint256",
          "name": "cooperative_id",
          "type": "uint256"
        },
        {
          "indexed": true,
          "internalType": "address",
          "name": "owner",
          "type": "address"
        },
        {
          "indexed": false,
          "internalType": "string",
          "name": "name",
          "type": "string"
        }
      ],
      "name": "CreateCooperative",
      "type": "event"
    },
    {
      "anonymous": false,
      "inputs": [
        {
          "indexed": false,
          "internalType": "uint256",
          "name": "cooperative_id",
          "type": "uint256"
        },
        {
          "indexed": false,
          "internalType": "string",
          "name": "cooperative_name",
          "type": "string"
        },
        {
          "indexed": false,
          "internalType": "uint256",
          "name": "your_cooperative_balance",
          "type": "uint256"
        },
        {
          "indexed": false,
          "internalType": "uint256",
          "name": "total_cooperative_balance",
          "type": "uint256"
        }
      ],
      "name": "Invest",
      "type": "event"
    },
    {
      "anonymous": false,
      "inputs": [
        {
          "indexed": true,
          "internalType": "address",
          "name": "from",
          "type": "address"
        },
        {
          "indexed": true,
          "internalType": "address",
          "name": "to",
          "type": "address"
        },
        {
          "indexed": false,
          "internalType": "uint256",
          "name": "tokens",
          "type": "uint256"
        }
      ],
      "name": "Transfer",
      "type": "event"
    },
    {
      "anonymous": false,
      "inputs": [
        {
          "indexed": false,
          "internalType": "uint256",
          "name": "cooperative_id",
          "type": "uint256"
        },
        {
          "indexed": false,
          "internalType": "string",
          "name": "cooperative_name",
          "type": "string"
        },
        {
          "indexed": false,
          "internalType": "uint256",
          "name": "your_cooperative_balance",
          "type": "uint256"
        },
        {
          "indexed": false,
          "internalType": "uint256",
          "name": "total_cooperative_balance",
          "type": "uint256"
        },
        {
          "indexed": false,
          "internalType": "uint256",
          "name": "my_balance",
          "type": "uint256"
        }
      ],
      "name": "Withdraw",
      "type": "event"
    },
    {
      "inputs": [],
      "name": "decimals",
      "outputs": [
        {
          "internalType": "uint8",
          "name": "",
          "type": "uint8"
        }
      ],
      "stateMutability": "view",
      "type": "function"
    },
    {
      "inputs": [],
      "name": "name",
      "outputs": [
        {
          "internalType": "string",
          "name": "",
          "type": "string"
        }
      ],
      "stateMutability": "view",
      "type": "function"
    },
    {
      "inputs": [],
      "name": "symbol",
      "outputs": [
        {
          "internalType": "string",
          "name": "",
          "type": "string"
        }
      ],
      "stateMutability": "view",
      "type": "function"
    },
    {
      "inputs": [],
      "name": "totalSupply",
      "outputs": [
        {
          "internalType": "uint256",
          "name": "",
          "type": "uint256"
        }
      ],
      "stateMutability": "view",
      "type": "function"
    },
    {
      "inputs": [
        {
          "internalType": "address",
          "name": "tokenOwner",
          "type": "address"
        }
      ],
      "name": "balanceOf",
      "outputs": [
        {
          "internalType": "uint256",
          "name": "",
          "type": "uint256"
        }
      ],
      "stateMutability": "view",
      "type": "function"
    },
    {
      "inputs": [
        {
          "internalType": "address",
          "name": "receiver",
          "type": "address"
        },
        {
          "internalType": "uint256",
          "name": "numTokens",
          "type": "uint256"
        }
      ],
      "name": "transfer",
      "outputs": [
        {
          "internalType": "bool",
          "name": "",
          "type": "bool"
        }
      ],
      "stateMutability": "nonpayable",
      "type": "function"
    },
    {
      "inputs": [
        {
          "internalType": "address",
          "name": "delegate",
          "type": "address"
        },
        {
          "internalType": "uint256",
          "name": "numTokens",
          "type": "uint256"
        }
      ],
      "name": "approve",
      "outputs": [
        {
          "internalType": "bool",
          "name": "",
          "type": "bool"
        }
      ],
      "stateMutability": "nonpayable",
      "type": "function"
    },
    {
      "inputs": [
        {
          "internalType": "address",
          "name": "owner",
          "type": "address"
        },
        {
          "internalType": "address",
          "name": "delegate",
          "type": "address"
        }
      ],
      "name": "allowance",
      "outputs": [
        {
          "internalType": "uint256",
          "name": "",
          "type": "uint256"
        }
      ],
      "stateMutability": "view",
      "type": "function"
    },
    {
      "inputs": [
        {
          "internalType": "address",
          "name": "owner",
          "type": "address"
        },
        {
          "internalType": "address",
          "name": "buyer",
          "type": "address"
        },
        {
          "internalType": "uint256",
          "name": "numTokens",
          "type": "uint256"
        }
      ],
      "name": "transferFrom",
      "outputs": [
        {
          "internalType": "bool",
          "name": "",
          "type": "bool"
        }
      ],
      "stateMutability": "nonpayable",
      "type": "function"
    },
    {
      "inputs": [
        {
          "internalType": "string",
          "name": "cooperativeName",
          "type": "string"
        }
      ],
      "name": "createCooperative",
      "outputs": [
        {
          "internalType": "bool",
          "name": "",
          "type": "bool"
        }
      ],
      "stateMutability": "nonpayable",
      "type": "function"
    },
    {
      "inputs": [
        {
          "internalType": "uint256",
          "name": "cooperative_id",
          "type": "uint256"
        },
        {
          "internalType": "uint256",
          "name": "numTokens",
          "type": "uint256"
        }
      ],
      "name": "invest",
      "outputs": [
        {
          "internalType": "bool",
          "name": "",
          "type": "bool"
        }
      ],
      "stateMutability": "nonpayable",
      "type": "function"
    },
    {
      "inputs": [
        {
          "internalType": "uint256",
          "name": "cooperative_id",
          "type": "uint256"
        },
        {
          "internalType": "uint256",
          "name": "numTokens",
          "type": "uint256"
        }
      ],
      "name": "withdraw",
      "outputs": [
        {
          "internalType": "bool",
          "name": "",
          "type": "bool"
        }
      ],
      "stateMutability": "nonpayable",
      "type": "function"
    },
    {
      "inputs": [
        {
          "internalType": "uint256",
          "name": "cooperative_id",
          "type": "uint256"
        }
      ],
      "name": "myCooperativeBalance",
      "outputs": [
        {
          "internalType": "uint256",
          "name": "",
          "type": "uint256"
        }
      ],
      "stateMutability": "view",
      "type": "function"
    },
    {
      "inputs": [],
      "name": "rand",
      "outputs": [
        {
          "internalType": "uint256",
          "name": "",
          "type": "uint256"
        }
      ],
      "stateMutability": "view",
      "type": "function"
    }
  ],
  "bytecode": "0x608060405234801562000010575f80fd5b5060405162001f4738038062001f478339818101604052810190620000369190620000e2565b601260ff16600a6200004991906200028f565b81620000569190620002df565b6004819055506004545f803373ffffffffffffffffffffffffffffffffffffffff1673ffffffffffffffffffffffffffffffffffffffff1681526020019081526020015f20819055505062000329565b5f80fd5b5f819050919050565b620000be81620000aa565b8114620000c9575f80fd5b50565b5f81519050620000dc81620000b3565b92915050565b5f60208284031215620000fa57620000f9620000a6565b5b5f6200010984828501620000cc565b91505092915050565b7f4e487b71000000000000000000000000000000000000000000000000000000005f52601160045260245ffd5b5f8160011c9050919050565b5f808291508390505b60018511156200019c5780860481111562000174576200017362000112565b5b6001851615620001845780820291505b808102905062000194856200013f565b945062000154565b94509492505050565b5f82620001b6576001905062000288565b81620001c5575f905062000288565b8160018114620001de5760028114620001e9576200021f565b600191505062000288565b60ff841115620001fe57620001fd62000112565b5b8360020a91508482111562000218576200021762000112565b5b5062000288565b5060208310610133831016604e8410600b8410161715620002595782820a90508381111562000253576200025262000112565b5b62000288565b6200026884848460016200014b565b9250905081840481111562000282576200028162000112565b5b81810290505b9392505050565b5f6200029b82620000aa565b9150620002a883620000aa565b9250620002d77fffffffffffffffffffffffffffffffffffffffffffffffffffffffffffffffff8484620001a5565b905092915050565b5f620002eb82620000aa565b9150620002f883620000aa565b92508282026200030881620000aa565b9150828204841483151762000322576200032162000112565b5b5092915050565b611c1080620003375f395ff3fe608060405234801561000f575f80fd5b50600436106100e8575f3560e01c8063441a3e701161008a578063a9059cbb11610064578063a9059cbb14610272578063d87aa643146102a2578063dd62ed3e146102d2578063fdc0ce5114610302576100e8565b8063441a3e70146101f457806370a082311461022457806395d89b4114610254576100e8565b806318160ddd116100c657806318160ddd1461016a57806323b872dd14610188578063313ce567146101b85780633b3dca76146101d6576100e8565b806306fdde03146100ec578063095ea7b31461010a57806312c3964e1461013a575b5f80fd5b6100f4610332565b604051610101919061126b565b60405180910390f35b610124600480360381019061011f9190611320565b61036b565b6040516101319190611378565b60405180910390f35b610154600480360381019061014f91906113f2565b610458565b6040516101619190611378565b60405180910390f35b6101726105bd565b60405161017f919061144c565b60405180910390f35b6101a2600480360381019061019d9190611465565b6105c6565b6040516101af9190611378565b60405180910390f35b6101c0610835565b6040516101cd91906114d0565b60405180910390f35b6101de61083a565b6040516101eb919061144c565b60405180910390f35b61020e600480360381019061020991906114e9565b61092e565b60405161021b9190611378565b60405180910390f35b61023e60048036038101906102399190611527565b610c56565b60405161024b919061144c565b60405180910390f35b61025c610c9b565b604051610269919061126b565b60405180910390f35b61028c60048036038101906102879190611320565b610cd4565b6040516102999190611378565b60405180910390f35b6102bc60048036038101906102b791906114e9565b610e30565b6040516102c99190611378565b60405180910390f35b6102ec60048036038101906102e79190611552565b61110a565b6040516102f9919061144c565b60405180910390f35b61031c60048036038101906103179190611590565b61118c565b604051610329919061144c565b60405180910390f35b6040518060400160405280600781526020017f506f67436f696e0000000000000000000000000000000000000000000000000081525081565b5f8160035f3373ffffffffffffffffffffffffffffffffffffffff1673ffffffffffffffffffffffffffffffffffffffff1681526020019081526020015f205f8573ffffffffffffffffffffffffffffffffffffffff1673ffffffffffffffffffffffffffffffffffffffff1681526020019081526020015f20819055508273ffffffffffffffffffffffffffffffffffffffff163373ffffffffffffffffffffffffffffffffffffffff167f8c5be1e5ebec7d5bd14f71427d1e84f3dd0314c0f7b2291e5b200ac8c7c3b92584604051610446919061144c565b60405180910390a36001905092915050565b5f8061046261083a565b905060405180608001604052808281526020013373ffffffffffffffffffffffffffffffffffffffff16815260200185858080601f0160208091040260200160405190810160405280939291908181526020018383808284375f81840152601f19601f8201169050808301925050505050505081526020015f81525060025f8381526020019081526020015f205f820151815f01556020820151816001015f6101000a81548173ffffffffffffffffffffffffffffffffffffffff021916908373ffffffffffffffffffffffffffffffffffffffff160217905550604082015181600201908161055291906117e2565b50606082015181600301559050503373ffffffffffffffffffffffffffffffffffffffff167fce3d0c8247b6298d9894613f060a20fc996bbf7ca0e0b2f5580745af34bb23108286866040516105aa939291906118eb565b60405180910390a2600191505092915050565b5f600454905090565b5f805f8573ffffffffffffffffffffffffffffffffffffffff1673ffffffffffffffffffffffffffffffffffffffff1681526020019081526020015f205482111561060f575f80fd5b60035f8573ffffffffffffffffffffffffffffffffffffffff1673ffffffffffffffffffffffffffffffffffffffff1681526020019081526020015f205f3373ffffffffffffffffffffffffffffffffffffffff1673ffffffffffffffffffffffffffffffffffffffff1681526020019081526020015f2054821115610693575f80fd5b815f808673ffffffffffffffffffffffffffffffffffffffff1673ffffffffffffffffffffffffffffffffffffffff1681526020019081526020015f205f8282546106de9190611948565b925050819055508160035f8673ffffffffffffffffffffffffffffffffffffffff1673ffffffffffffffffffffffffffffffffffffffff1681526020019081526020015f205f3373ffffffffffffffffffffffffffffffffffffffff1673ffffffffffffffffffffffffffffffffffffffff1681526020019081526020015f205f82825461076c9190611948565b92505081905550815f808573ffffffffffffffffffffffffffffffffffffffff1673ffffffffffffffffffffffffffffffffffffffff1681526020019081526020015f205f8282546107be919061197b565b925050819055508273ffffffffffffffffffffffffffffffffffffffff168473ffffffffffffffffffffffffffffffffffffffff167fddf252ad1be2c89b69c2b068fc378daa952ba7f163c4a11628f55a4df523b3ef84604051610822919061144c565b60405180910390a3600190509392505050565b601281565b5f8043423360405160200161084f91906119f3565b604051602081830303815290604052805190602001205f1c6108719190611a3a565b4542416040516020016108849190611aa3565b604051602081830303815290604052805190602001205f1c6108a69190611a3a565b44426108b2919061197b565b6108bc919061197b565b6108c6919061197b565b6108d0919061197b565b6108da919061197b565b6040516020016108ea9190611add565b604051602081830303815290604052805190602001205f1c90506103e880826109139190611a3a565b61091d9190611af7565b816109289190611948565b91505090565b5f60015f8481526020019081526020015f205f3373ffffffffffffffffffffffffffffffffffffffff1673ffffffffffffffffffffffffffffffffffffffff1681526020019081526020015f2054821115610987575f80fd5b8160015f8581526020019081526020015f205f3373ffffffffffffffffffffffffffffffffffffffff1673ffffffffffffffffffffffffffffffffffffffff1681526020019081526020015f205f8282546109e29190611948565b925050819055508160025f8581526020019081526020015f206003015f828254610a0c9190611948565b92505081905550815f803373ffffffffffffffffffffffffffffffffffffffff1673ffffffffffffffffffffffffffffffffffffffff1681526020019081526020015f205f828254610a5e919061197b565b925050819055505f60025f8581526020019081526020015f206040518060800160405290815f8201548152602001600182015f9054906101000a900473ffffffffffffffffffffffffffffffffffffffff1673ffffffffffffffffffffffffffffffffffffffff1673ffffffffffffffffffffffffffffffffffffffff168152602001600282018054610af090611615565b80601f0160208091040260200160405190810160405280929190818152602001828054610b1c90611615565b8015610b675780601f10610b3e57610100808354040283529160200191610b67565b820191905f5260205f20905b815481529060010190602001808311610b4a57829003601f168201915b5050505050815260200160038201548152505090507f9ac852c6f5130180d046b048f341ade338b60d9380fa133c389c683d0c0b1b1384826040015160015f8881526020019081526020015f205f3373ffffffffffffffffffffffffffffffffffffffff1673ffffffffffffffffffffffffffffffffffffffff1681526020019081526020015f205484606001515f803373ffffffffffffffffffffffffffffffffffffffff1673ffffffffffffffffffffffffffffffffffffffff1681526020019081526020015f2054604051610c43959493929190611b38565b60405180910390a1600191505092915050565b5f805f8373ffffffffffffffffffffffffffffffffffffffff1673ffffffffffffffffffffffffffffffffffffffff1681526020019081526020015f20549050919050565b6040518060400160405280600381526020017f504f47000000000000000000000000000000000000000000000000000000000081525081565b5f805f3373ffffffffffffffffffffffffffffffffffffffff1673ffffffffffffffffffffffffffffffffffffffff1681526020019081526020015f2054821115610d1d575f80fd5b815f803373ffffffffffffffffffffffffffffffffffffffff1673ffffffffffffffffffffffffffffffffffffffff1681526020019081526020015f205f828254610d689190611948565b92505081905550815f808573ffffffffffffffffffffffffffffffffffffffff1673ffffffffffffffffffffffffffffffffffffffff1681526020019081526020015f205f828254610dba919061197b565b925050819055508273ffffffffffffffffffffffffffffffffffffffff163373ffffffffffffffffffffffffffffffffffffffff167fddf252ad1be2c89b69c2b068fc378daa952ba7f163c4a11628f55a4df523b3ef84604051610e1e919061144c565b60405180910390a36001905092915050565b5f805f3373ffffffffffffffffffffffffffffffffffffffff1673ffffffffffffffffffffffffffffffffffffffff1681526020019081526020015f2054821115610e79575f80fd5b815f803373ffffffffffffffffffffffffffffffffffffffff1673ffffffffffffffffffffffffffffffffffffffff1681526020019081526020015f205f828254610ec49190611948565b925050819055508160025f8581526020019081526020015f206003015f828254610eee919061197b565b925050819055508160015f8581526020019081526020015f205f3373ffffffffffffffffffffffffffffffffffffffff1673ffffffffffffffffffffffffffffffffffffffff1681526020019081526020015f205f828254610f50919061197b565b925050819055505f60025f8581526020019081526020015f206040518060800160405290815f8201548152602001600182015f9054906101000a900473ffffffffffffffffffffffffffffffffffffffff1673ffffffffffffffffffffffffffffffffffffffff1673ffffffffffffffffffffffffffffffffffffffff168152602001600282018054610fe290611615565b80601f016020809104026020016040519081016040528092919081815260200182805461100e90611615565b80156110595780601f1061103057610100808354040283529160200191611059565b820191905f5260205f20905b81548152906001019060200180831161103c57829003601f168201915b5050505050815260200160038201548152505090507f938f92f9bc3f80f7b614cb42629d17b0de43656decb507b4739f571c068c0b3e84826040015160015f8881526020019081526020015f205f3373ffffffffffffffffffffffffffffffffffffffff1673ffffffffffffffffffffffffffffffffffffffff1681526020019081526020015f205484606001516040516110f79493929190611b90565b60405180910390a1600191505092915050565b5f60035f8473ffffffffffffffffffffffffffffffffffffffff1673ffffffffffffffffffffffffffffffffffffffff1681526020019081526020015f205f8373ffffffffffffffffffffffffffffffffffffffff1673ffffffffffffffffffffffffffffffffffffffff1681526020019081526020015f2054905092915050565b5f60015f8381526020019081526020015f205f3373ffffffffffffffffffffffffffffffffffffffff1673ffffffffffffffffffffffffffffffffffffffff1681526020019081526020015f20549050919050565b5f81519050919050565b5f82825260208201905092915050565b5f5b838110156112185780820151818401526020810190506111fd565b5f8484015250505050565b5f601f19601f8301169050919050565b5f61123d826111e1565b61124781856111eb565b93506112578185602086016111fb565b61126081611223565b840191505092915050565b5f6020820190508181035f8301526112838184611233565b905092915050565b5f80fd5b5f80fd5b5f73ffffffffffffffffffffffffffffffffffffffff82169050919050565b5f6112bc82611293565b9050919050565b6112cc816112b2565b81146112d6575f80fd5b50565b5f813590506112e7816112c3565b92915050565b5f819050919050565b6112ff816112ed565b8114611309575f80fd5b50565b5f8135905061131a816112f6565b92915050565b5f80604083850312156113365761133561128b565b5b5f611343858286016112d9565b92505060206113548582860161130c565b9150509250929050565b5f8115159050919050565b6113728161135e565b82525050565b5f60208201905061138b5f830184611369565b92915050565b5f80fd5b5f80fd5b5f80fd5b5f8083601f8401126113b2576113b1611391565b5b8235905067ffffffffffffffff8111156113cf576113ce611395565b5b6020830191508360018202830111156113eb576113ea611399565b5b9250929050565b5f80602083850312156114085761140761128b565b5b5f83013567ffffffffffffffff8111156114255761142461128f565b5b6114318582860161139d565b92509250509250929050565b611446816112ed565b82525050565b5f60208201905061145f5f83018461143d565b92915050565b5f805f6060848603121561147c5761147b61128b565b5b5f611489868287016112d9565b935050602061149a868287016112d9565b92505060406114ab8682870161130c565b9150509250925092565b5f60ff82169050919050565b6114ca816114b5565b82525050565b5f6020820190506114e35f8301846114c1565b92915050565b5f80604083850312156114ff576114fe61128b565b5b5f61150c8582860161130c565b925050602061151d8582860161130c565b9150509250929050565b5f6020828403121561153c5761153b61128b565b5b5f611549848285016112d9565b91505092915050565b5f80604083850312156115685761156761128b565b5b5f611575858286016112d9565b9250506020611586858286016112d9565b9150509250929050565b5f602082840312156115a5576115a461128b565b5b5f6115b28482850161130c565b91505092915050565b7f4e487b71000000000000000000000000000000000000000000000000000000005f52604160045260245ffd5b7f4e487b71000000000000000000000000000000000000000000000000000000005f52602260045260245ffd5b5f600282049050600182168061162c57607f821691505b60208210810361163f5761163e6115e8565b5b50919050565b5f819050815f5260205f209050919050565b5f6020601f8301049050919050565b5f82821b905092915050565b5f600883026116a17fffffffffffffffffffffffffffffffffffffffffffffffffffffffffffffffff82611666565b6116ab8683611666565b95508019841693508086168417925050509392505050565b5f819050919050565b5f6116e66116e16116dc846112ed565b6116c3565b6112ed565b9050919050565b5f819050919050565b6116ff836116cc565b61171361170b826116ed565b848454611672565b825550505050565b5f90565b61172761171b565b6117328184846116f6565b505050565b5b818110156117555761174a5f8261171f565b600181019050611738565b5050565b601f82111561179a5761176b81611645565b61177484611657565b81016020851015611783578190505b61179761178f85611657565b830182611737565b50505b505050565b5f82821c905092915050565b5f6117ba5f198460080261179f565b1980831691505092915050565b5f6117d283836117ab565b9150826002028217905092915050565b6117eb826111e1565b67ffffffffffffffff811115611804576118036115bb565b5b61180e8254611615565b611819828285611759565b5f60209050601f83116001811461184a575f8415611838578287015190505b61184285826117c7565b8655506118a9565b601f19841661185886611645565b5f5b8281101561187f5784890151825560018201915060208501945060208101905061185a565b8683101561189c5784890151611898601f8916826117ab565b8355505b6001600288020188555050505b505050505050565b828183375f83830152505050565b5f6118ca83856111eb565b93506118d78385846118b1565b6118e083611223565b840190509392505050565b5f6040820190506118fe5f83018661143d565b81810360208301526119118184866118bf565b9050949350505050565b7f4e487b71000000000000000000000000000000000000000000000000000000005f52601160045260245ffd5b5f611952826112ed565b915061195d836112ed565b92508282039050818111156119755761197461191b565b5b92915050565b5f611985826112ed565b9150611990836112ed565b92508282019050808211156119a8576119a761191b565b5b92915050565b5f8160601b9050919050565b5f6119c4826119ae565b9050919050565b5f6119d5826119ba565b9050919050565b6119ed6119e8826112b2565b6119cb565b82525050565b5f6119fe82846119dc565b60148201915081905092915050565b7f4e487b71000000000000000000000000000000000000000000000000000000005f52601260045260245ffd5b5f611a44826112ed565b9150611a4f836112ed565b925082611a5f57611a5e611a0d565b5b828204905092915050565b5f611a7482611293565b9050919050565b5f611a85826119ba565b9050919050565b611a9d611a9882611a6a565b611a7b565b82525050565b5f611aae8284611a8c565b60148201915081905092915050565b5f819050919050565b611ad7611ad2826112ed565b611abd565b82525050565b5f611ae88284611ac6565b60208201915081905092915050565b5f611b01826112ed565b9150611b0c836112ed565b9250828202611b1a816112ed565b91508282048414831517611b3157611b3061191b565b5b5092915050565b5f60a082019050611b4b5f83018861143d565b8181036020830152611b5d8187611233565b9050611b6c604083018661143d565b611b79606083018561143d565b611b86608083018461143d565b9695505050505050565b5f608082019050611ba35f83018761143d565b8181036020830152611bb58186611233565b9050611bc4604083018561143d565b611bd1606083018461143d565b9594505050505056fea26469706673582212200feff67b7bfe7f7c9ed3b05708d5c1260fe66cb0c50eb7840c7b4a8bbb0854f464736f6c63430008150033",
  "immutableReferences": {},
  "source": "pragma solidity >=0.7.0 <0.9.0;\n\ncontract PogCoin {\n\n    event Transfer(address indexed from, address indexed to, uint tokens);\n    event Approval(address indexed tokenOwner, address indexed spender, uint tokens);\n    event CreateCooperative(uint256 cooperative_id, address indexed owner, string name);\n    event Invest(uint256 cooperative_id, string cooperative_name, uint256 your_cooperative_balance, uint256 total_cooperative_balance);\n    event Withdraw(uint256 cooperative_id, string cooperative_name, uint256 your_cooperative_balance, uint256 total_cooperative_balance, uint256 my_balance);\n\n    struct Cooperative {\n        uint256 cooperative_id;\n        address owner;\n        string name;\n        uint256 total_balance;\n    }\n\n\n    string public constant name = \"PogCoin\";\n    string public constant symbol = \"POG\";\n    uint8 public constant decimals = 18;\n\n    mapping(address => uint256) balances;\n    mapping(uint256 => mapping (address => uint256)) cooperative_balances;\n    mapping(uint256 => Cooperative) cooperatives;\n    mapping(address => mapping (address => uint256)) allowed;\n\n    uint256 totalSupply_;\n\n    constructor(uint256 total) {\n      totalSupply_ = total * 10 ** uint256(decimals);\n      balances[msg.sender] = totalSupply_;\n    }\n\n    function totalSupply() public view returns (uint256) {\n      return totalSupply_;\n    }\n\n    function balanceOf(address tokenOwner) public view returns (uint) {\n        return balances[tokenOwner];\n    }\n\n    function transfer(address receiver, uint numTokens) public returns (bool) {\n        require(numTokens <= balances[msg.sender]);\n        balances[msg.sender] -= numTokens;\n        balances[receiver] += numTokens;\n        emit Transfer(msg.sender, receiver, numTokens);\n        return true;\n    }\n\n    function approve(address delegate, uint numTokens) public returns (bool) {\n        allowed[msg.sender][delegate] = numTokens;\n        emit Approval(msg.sender, delegate, numTokens);\n        return true;\n    }\n\n    function allowance(address owner, address delegate) public view returns (uint) {\n        return allowed[owner][delegate];\n    }\n\n    function transferFrom(address owner, address buyer, uint numTokens) public returns (bool) {\n        require(numTokens <= balances[owner]);\n        require(numTokens <= allowed[owner][msg.sender]);\n\n        balances[owner] -= numTokens;\n        allowed[owner][msg.sender] -= numTokens;\n        balances[buyer] += numTokens;\n        emit Transfer(owner, buyer, numTokens);\n        return true;\n    }\n  \n    function createCooperative(string calldata cooperativeName) public returns (bool) {\n        uint256 cooperative_id = rand();\n        cooperatives[cooperative_id] = Cooperative({total_balance: 0, cooperative_id: cooperative_id, owner: msg.sender, name: cooperativeName}); \n        emit CreateCooperative(cooperative_id, msg.sender, cooperativeName);\n        return true;\n    }\n\n    function invest(uint256 cooperative_id, uint256 numTokens) public returns (bool) {\n        require(numTokens <= balances[msg.sender]);\n        balances[msg.sender] -= numTokens;\n        cooperatives[cooperative_id].total_balance += numTokens;\n        cooperative_balances[cooperative_id][msg.sender] += numTokens;\n        Cooperative memory c = cooperatives[cooperative_id]; \n        emit Invest(cooperative_id, c.name, cooperative_balances[cooperative_id][msg.sender], c.total_balance);\n        return true;\n    }\n   \n    function withdraw(uint256 cooperative_id, uint256 numTokens) public returns (bool) {\n        require(numTokens <= cooperative_balances[cooperative_id][msg.sender]);\n        cooperative_balances[cooperative_id][msg.sender] -= numTokens;\n        cooperatives[cooperative_id].total_balance -= numTokens;\n        balances[msg.sender] += numTokens;\n        Cooperative memory c = cooperatives[cooperative_id]; \n        emit Withdraw(cooperative_id, c.name, cooperative_balances[cooperative_id][msg.sender], c.total_balance, balances[msg.sender]);\n        return true;\n    }\n\n    function myCooperativeBalance(uint256 cooperative_id) public view returns (uint) {\n        return cooperative_balances[cooperative_id][msg.sender];\n    }\n\n    function rand() public view returns(uint256)\n    {\n        uint256 seed = uint256(keccak256(abi.encodePacked(\n            block.timestamp + block.difficulty +\n            ((uint256(keccak256(abi.encodePacked(block.coinbase)))) / (block.timestamp)) +\n            block.gaslimit + \n            ((uint256(keccak256(abi.encodePacked(msg.sender)))) / (block.timestamp)) +\n            block.number\n        )));\n\n        return (seed - ((seed / 1000) * 1000));\n    }\n}\n",
  "sourcePath": "/home/titico03/Documents/PogCoinErc20/contracts/PogCoin.sol",
  "compiler": {
    "name": "solc",
    "version": "0.8.21+commit.d9974bed.Emscripten.clang"
  },
  "schemaVersion": "3.4.15",
  "updatedAt": "2023-08-19T19:47:18.725Z",
  "devdoc": {
    "kind": "dev",
    "methods": {},
    "version": 1
  },
  "userdoc": {
    "kind": "user",
    "methods": {},
    "version": 1
  }
}